{
  "contractName": "Account",
  "abi": [
    {
      "inputs": [],
      "payable": false,
      "stateMutability": "nonpayable",
      "type": "constructor"
    },
    {
      "anonymous": false,
      "inputs": [
        {
          "indexed": true,
          "name": "nameHash",
          "type": "bytes32"
        },
        {
          "indexed": false,
          "name": "fileHash",
          "type": "string"
        },
        {
          "indexed": false,
          "name": "repo",
          "type": "uint8"
        }
      ],
      "name": "newAccountEvent",
      "type": "event"
    },
    {
      "constant": false,
      "inputs": [
        {
          "name": "_name",
          "type": "string"
        },
        {
          "name": "_fileHash",
          "type": "string"
        },
        {
          "name": "_repo",
          "type": "uint8"
        }
      ],
      "name": "register",
      "outputs": [
        {
          "name": "success",
          "type": "bool"
        }
      ],
      "payable": false,
      "stateMutability": "nonpayable",
      "type": "function"
    },
    {
      "constant": true,
      "inputs": [
        {
          "name": "_owner",
          "type": "address"
        }
      ],
      "name": "existsAccount",
      "outputs": [
        {
          "name": "",
          "type": "bool"
        }
      ],
      "payable": false,
      "stateMutability": "view",
      "type": "function"
    }
  ],
  "bytecode": "0x608060405234801561001057600080fd5b50610498806100206000396000f3fe60806040526004361061004b5763ffffffff7c01000000000000000000000000000000000000000000000000000000006000350416630feb4b0b8114610050578063b3f90e0a146100a4575b600080fd5b34801561005c57600080fd5b506100906004803603602081101561007357600080fd5b503573ffffffffffffffffffffffffffffffffffffffff166101e3565b604080519115158252519081900360200190f35b3480156100b057600080fd5b50610090600480360360608110156100c757600080fd5b8101906020810181356401000000008111156100e257600080fd5b8201836020820111156100f457600080fd5b8035906020019184600183028401116401000000008311171561011657600080fd5b91908080601f016020809104026020016040519081016040528093929190818152602001838380828437600092019190915250929594936020810193503591505064010000000081111561016957600080fd5b82018360208201111561017b57600080fd5b8035906020019184600183028401116401000000008311171561019d57600080fd5b91908080601f0160208091040260200160405190810160405280939291908181526020018383808284376000920191909152509295505050903560ff1691506102819050565b73ffffffffffffffffffffffffffffffffffffffff811660009081526020819052604081205460ff16151561027957604080517f08c379a000000000000000000000000000000000000000000000000000000000815260206004820152601060248201527f6e6f744578697374734164647265737300000000000000000000000000000000604482015290519081900360640190fd5b506001919050565b825160208085019190912033600090815291829052604082205460ff161561030a57604080517f08c379a000000000000000000000000000000000000000000000000000000000815260206004820152600d60248201527f6578697374734164647265737300000000000000000000000000000000000000604482015290519081900360640190fd5b60008181526001602052604090205460ff161561038857604080517f08c379a000000000000000000000000000000000000000000000000000000000815260206004820152600a60248201527f6578697374734e616d6500000000000000000000000000000000000000000000604482015290519081900360640190fd5b336000908152602081815260408083208054600160ff19918216811790925585855281845282852080549091169091179055805160ff871681840152818152875191810191909152865184937fdd7f130173afc54851d268a6dd39f66b104a449c2d3f1d81ad14103dcd1cbcae9389938993909283926060840192908701918190849084905b8381101561042657818101518382015260200161040e565b50505050905090810190601f1680156104535780820380516001836020036101000a031916815260200191505b50935050505060405180910390a250600194935050505056fea165627a7a72305820689aa5714067b55352e9bf402d0d8c1a663ac4bdc78d9d158f4673204cf30f4b0029",
  "source": "pragma solidity >=0.4.22 <0.6.0;\n\ncontract Account {\n    mapping(address => bool) existsAddress;\n    mapping(bytes32 => bool) existsName;\n\n    event newAccountEvent (\n        bytes32 indexed nameHash,\n        string fileHash,\n        uint8 repo\n    );\n\n    constructor () public {}\n\n    function register(string memory _name, string memory _fileHash, uint8 _repo) public returns (bool success) {\n        bytes32 nameHash = keccak256(bytes(_name));\n\n        require(!existsAddress[msg.sender], \"existsAddress\");\n        require(!existsName[nameHash], \"existsName\");\n\n        existsAddress[msg.sender] = true;\n        existsName[nameHash] = true;\n\n        emit newAccountEvent(\n            nameHash,\n            _fileHash,\n            _repo\n        );\n\n        return true;\n    }\n\n    function existsAccount(address _owner) public view returns (bool) {\n        require(existsAddress[_owner], \"notExistsAddress\");\n\n        return true;\n    }\n}\n\n",
  "sourcePath": "/home/jochen/WebstormProjects/sesamed/eth/contracts/sesamed/Account.sol",
  "compiler": {
    "name": "solc",
    "version": "0.5.0+commit.1d4f565a.Emscripten.clang"
  },
  "schemaVersion": "3.0.2",
  "updatedAt": "2019-02-21T11:49:07.221Z",
  "devdoc": {
    "methods": {}
  },
  "userdoc": {
    "methods": {}
  }
}