{
  "contractName": "Account",
  "abi": [
    {
      "inputs": [],
      "payable": false,
      "stateMutability": "nonpayable",
      "type": "constructor"
    },
    {
      "anonymous": false,
      "inputs": [
        {
          "indexed": true,
          "name": "nameHash",
          "type": "bytes32"
        },
        {
          "indexed": false,
          "name": "fileHash",
          "type": "string"
        },
        {
          "indexed": false,
          "name": "repo",
          "type": "uint8"
        }
      ],
      "name": "newAccountEvent",
      "type": "event"
    },
    {
      "constant": false,
      "inputs": [
        {
          "name": "_name",
          "type": "string"
        },
        {
          "name": "_fileHash",
          "type": "string"
        },
        {
          "name": "_repo",
          "type": "uint8"
        }
      ],
      "name": "register",
      "outputs": [
        {
          "name": "success",
          "type": "bool"
        }
      ],
      "payable": false,
      "stateMutability": "nonpayable",
      "type": "function"
    },
    {
      "constant": true,
      "inputs": [
        {
          "name": "_owner",
          "type": "address"
        },
        {
          "name": "_nameHash",
          "type": "bytes32"
        }
      ],
      "name": "existsAccount",
      "outputs": [
        {
          "name": "",
          "type": "bool"
        }
      ],
      "payable": false,
      "stateMutability": "view",
      "type": "function"
    }
  ],
  "bytecode": "0x608060405234801561001057600080fd5b50610546806100206000396000f3fe60806040526004361061004b5763ffffffff7c0100000000000000000000000000000000000000000000000000000000600035041663b3f90e0a8114610050578063cb8b03b6146101a3575b600080fd5b34801561005c57600080fd5b5061018f6004803603606081101561007357600080fd5b81019060208101813564010000000081111561008e57600080fd5b8201836020820111156100a057600080fd5b803590602001918460018302840111640100000000831117156100c257600080fd5b91908080601f016020809104026020016040519081016040528093929190818152602001838380828437600092019190915250929594936020810193503591505064010000000081111561011557600080fd5b82018360208201111561012757600080fd5b8035906020019184600183028401116401000000008311171561014957600080fd5b91908080601f0160208091040260200160405190810160405280939291908181526020018383808284376000920191909152509295505050903560ff1691506101e99050565b604080519115158252519081900360200190f35b3480156101af57600080fd5b5061018f600480360360408110156101c657600080fd5b5073ffffffffffffffffffffffffffffffffffffffff8135169060200135610465565b825160208401206000906101fb610503565b3360009081526020819052604090205460ff161561027a57604080517f08c379a000000000000000000000000000000000000000000000000000000000815260206004820152600d60248201527f6578697374734164647265737300000000000000000000000000000000000000604482015290519081900360640190fd5b60008281526001602052604090205474010000000000000000000000000000000000000000900460ff161561031057604080517f08c379a000000000000000000000000000000000000000000000000000000000815260206004820152600a60248201527f6578697374734e616d6500000000000000000000000000000000000000000000604482015290519081900360640190fd5b33600081815260208181526040808320805460ff191660019081179091559385528482018481528684529382528083208551815495511515740100000000000000000000000000000000000000000274ff00000000000000000000000000000000000000001973ffffffffffffffffffffffffffffffffffffffff9290921673ffffffffffffffffffffffffffffffffffffffff19909716969096171694909417909355825160ff881681830152838152885193810193909352875185937fdd7f130173afc54851d268a6dd39f66b104a449c2d3f1d81ad14103dcd1cbcae938a938a9383926060840192870191908190849084905b8381101561041e578181015183820152602001610406565b50505050905090810190601f16801561044b5780820380516001836020036101000a031916815260200191505b50935050505060405180910390a250600195945050505050565b60008181526001602052604081205473ffffffffffffffffffffffffffffffffffffffff8481169116146104fa57604080517f08c379a000000000000000000000000000000000000000000000000000000000815260206004820152601060248201527f6e6f744578697374734163636f756e7400000000000000000000000000000000604482015290519081900360640190fd5b50600192915050565b60408051808201909152600080825260208201529056fea165627a7a723058205c19e2532804fc70dd89dfa0183ec57df66099ad2e47197939d1ad6423693ca60029",
  "source": "pragma solidity >=0.4.22 <0.6.0;\n\ncontract Account {\n\n    struct AdressStruct {\n        address owner;\n        bool    exists;\n    }\n\n    mapping(address => bool) existsAddress;\n    mapping(bytes32 => AdressStruct) existsName;\n\n    event newAccountEvent (\n        bytes32 indexed nameHash,\n        string fileHash,\n        uint8 repo\n    );\n\n\n    constructor () public {}\n\n    function register(string memory _name, string memory _fileHash, uint8 _repo) public returns (bool success) {\n        bytes32 nameHash = keccak256(bytes(_name));\n        AdressStruct memory addressStruct;\n\n        require(!existsAddress[msg.sender], \"existsAddress\");\n        require(!existsName[nameHash].exists, \"existsName\");\n\n        existsAddress[msg.sender] = true;\n\n        addressStruct.owner = msg.sender;\n        addressStruct.exists = true;\n\n        existsName[nameHash] = addressStruct;\n\n        emit newAccountEvent(\n            nameHash,\n            _fileHash,\n            _repo\n        );\n\n        return true;\n    }\n\n    function existsAccount(address _owner, bytes32 _nameHash) public view returns (bool) {\n        require(existsName[_nameHash].owner == _owner, \"notExistsAccount\");\n\n        return true;\n    }\n}\n\n",
  "sourcePath": "/home/jochen/WebstormProjects/sesamed/eth/contracts/sesamed/Account.sol",
  "compiler": {
    "name": "solc",
    "version": "0.5.0+commit.1d4f565a.Emscripten.clang"
  },
  "schemaVersion": "3.0.2",
  "updatedAt": "2019-02-24T12:58:22.942Z",
  "devdoc": {
    "methods": {}
  },
  "userdoc": {
    "methods": {}
  }
}