{
  "contractName": "Account",
  "abi": [
    {
      "inputs": [],
      "payable": false,
      "stateMutability": "nonpayable",
      "type": "constructor"
    },
    {
      "anonymous": false,
      "inputs": [
        {
          "indexed": true,
          "name": "nameHash",
          "type": "bytes32"
        },
        {
          "indexed": false,
          "name": "fileHash",
          "type": "bytes32"
        }
      ],
      "name": "newAccountEvent",
      "type": "event"
    },
    {
      "constant": false,
      "inputs": [
        {
          "name": "_nameHash",
          "type": "bytes32"
        },
        {
          "name": "_fileHash",
          "type": "bytes32"
        }
      ],
      "name": "register",
      "outputs": [
        {
          "name": "success",
          "type": "bool"
        }
      ],
      "payable": false,
      "stateMutability": "nonpayable",
      "type": "function"
    },
    {
      "constant": true,
      "inputs": [
        {
          "name": "_owner",
          "type": "address"
        },
        {
          "name": "_nameHash",
          "type": "bytes32"
        }
      ],
      "name": "existsAccount",
      "outputs": [
        {
          "name": "",
          "type": "bool"
        }
      ],
      "payable": false,
      "stateMutability": "view",
      "type": "function"
    },
    {
      "constant": true,
      "inputs": [
        {
          "name": "_nameHash",
          "type": "bytes32"
        }
      ],
      "name": "getFileHash",
      "outputs": [
        {
          "name": "",
          "type": "bytes32"
        }
      ],
      "payable": false,
      "stateMutability": "view",
      "type": "function"
    }
  ],
  "bytecode": "0x608060405234801561001057600080fd5b5061041a806100206000396000f3fe6080604052600436106100565763ffffffff7c01000000000000000000000000000000000000000000000000000000006000350416632b1c5b77811461005b5780632f92673214610097578063cb8b03b6146100db575b600080fd5b34801561006757600080fd5b506100856004803603602081101561007e57600080fd5b5035610121565b60408051918252519081900360200190f35b3480156100a357600080fd5b506100c7600480360360408110156100ba57600080fd5b50803590602001356101a3565b604080519115158252519081900360200190f35b3480156100e757600080fd5b506100c7600480360360408110156100fe57600080fd5b5073ffffffffffffffffffffffffffffffffffffffff8135169060200135610347565b60008181526001602052604081206002015460ff16151561018c576040805160e560020a62461bcd02815260206004820152601060248201527f6e6f744578697374734163636f756e7400000000000000000000000000000000604482015290519081900360640190fd5b506000908152600160208190526040909120015490565b60006101ad6103ce565b3360009081526020819052604090205460ff1615610215576040805160e560020a62461bcd02815260206004820152600d60248201527f6578697374734164647265737300000000000000000000000000000000000000604482015290519081900360640190fd5b60008481526001602052604090206002015460ff161561027f576040805160e560020a62461bcd02815260206004820152600a60248201527f6578697374734e616d6500000000000000000000000000000000000000000000604482015290519081900360640190fd5b336000818152602081815260408083208054600160ff1991821681179092559486528583018881528683018281528a8652828552948390208751815473ffffffffffffffffffffffffffffffffffffffff191673ffffffffffffffffffffffffffffffffffffffff909116178155905191810191909155925160029093018054909416921515929092179092558051858152905186927f88c645826ff68a4fb33cb3acdbd8e1e5622cfc8cf708f8774cc1e13f8d16789e928290030190a25060019392505050565b60008181526001602052604081205473ffffffffffffffffffffffffffffffffffffffff8481169116146103c5576040805160e560020a62461bcd02815260206004820152601060248201527f6e6f744578697374734163636f756e7400000000000000000000000000000000604482015290519081900360640190fd5b50600192915050565b60408051606081018252600080825260208201819052918101919091529056fea165627a7a723058208fa72daf7ce76515593f3abf474ba2d04295a2f8a9c320b6b0e26615a0013ee90029",
  "source": "pragma solidity 0.5.0;\n\ncontract Account {\n\n    struct AccountStruct {\n        address owner;\n        bytes32 fileHash;\n        bool    exists;\n    }\n\n    mapping(address => bool) existsAddress;\n    mapping(bytes32 => AccountStruct) accounts;\n\n    event newAccountEvent (\n        bytes32 indexed nameHash,\n        bytes32 fileHash\n    );\n\n    constructor () public {}\n\n    function register(bytes32 _nameHash, bytes32 _fileHash) public returns (bool success) {\n        AccountStruct memory accountStruct;\n\n        // check if this address has already an account\n        require(!existsAddress[msg.sender], \"existsAddress\");\n\n        // check if the given name (=nameHash) is already taken\n        require(!accounts[_nameHash].exists, \"existsName\");\n\n        // set the address as taken\n        existsAddress[msg.sender] = true;\n\n        // set the account\n        accountStruct.owner = msg.sender;\n        accountStruct.fileHash = _fileHash;\n        accountStruct.exists = true;\n        accounts[_nameHash] = accountStruct;\n\n        // emit the new account\n        emit newAccountEvent(\n            _nameHash,\n            _fileHash\n        );\n\n        return true;\n    }\n\n    function existsAccount(address _owner, bytes32 _nameHash) public view returns (bool) {\n        require(accounts[_nameHash].owner == _owner, \"notExistsAccount\");\n\n        return true;\n    }\n\n    function getFileHash(bytes32 _nameHash) public view returns (bytes32) {\n        require(accounts[_nameHash].exists, \"notExistsAccount\");\n\n        return accounts[_nameHash].fileHash;\n    }\n}\n\n",
  "sourcePath": "/home/jochen/WebstormProjects/sesamed/eth/contracts/sesamed/Account.sol",
  "compiler": {
    "name": "solc",
    "version": "0.5.0+commit.1d4f565a.Emscripten.clang"
  },
  "schemaVersion": "3.0.2",
  "updatedAt": "2019-03-03T09:25:21.994Z",
  "devdoc": {
    "methods": {}
  },
  "userdoc": {
    "methods": {}
  }
}