{
  "contractName": "Channel",
  "abi": [
    {
      "inputs": [
        {
          "name": "_accountContractAddress",
          "type": "address"
        }
      ],
      "payable": false,
      "stateMutability": "nonpayable",
      "type": "constructor"
    },
    {
      "anonymous": false,
      "inputs": [
        {
          "indexed": false,
          "name": "channelId",
          "type": "bytes32"
        },
        {
          "indexed": false,
          "name": "ciphertext",
          "type": "string"
        }
      ],
      "name": "newChannelEvent",
      "type": "event"
    },
    {
      "constant": false,
      "inputs": [
        {
          "name": "_channelId",
          "type": "bytes32"
        },
        {
          "name": "_ciphertext",
          "type": "string"
        }
      ],
      "name": "createChannel",
      "outputs": [
        {
          "name": "",
          "type": "bool"
        }
      ],
      "payable": false,
      "stateMutability": "nonpayable",
      "type": "function"
    },
    {
      "constant": true,
      "inputs": [
        {
          "name": "_channelId",
          "type": "bytes32"
        }
      ],
      "name": "existsChannel",
      "outputs": [
        {
          "name": "",
          "type": "bool"
        }
      ],
      "payable": false,
      "stateMutability": "view",
      "type": "function"
    },
    {
      "constant": true,
      "inputs": [
        {
          "name": "_channelId",
          "type": "bytes32"
        }
      ],
      "name": "getChannelOwner",
      "outputs": [
        {
          "name": "",
          "type": "address"
        }
      ],
      "payable": false,
      "stateMutability": "view",
      "type": "function"
    }
  ],
  "bytecode": "0x608060405234801561001057600080fd5b5060405160208061051f8339810180604052602081101561003057600080fd5b505160008054600160a060020a03909216600160a060020a03199092169190911790556104bd806100626000396000f3fe6080604052600436106100565763ffffffff7c010000000000000000000000000000000000000000000000000000000060003504166304b7ea96811461005b578063aba60a7014610129578063da314caf1461017c575b600080fd5b34801561006757600080fd5b506101156004803603604081101561007e57600080fd5b813591908101906040810160208201356401000000008111156100a057600080fd5b8201836020820111156100b257600080fd5b803590602001918460018302840111640100000000831117156100d457600080fd5b91908080601f0160208091040260200160405190810160405280939291908181526020018383808284376000920191909152509295506101a6945050505050565b604080519115158252519081900360200190f35b34801561013557600080fd5b506101536004803603602081101561014c57600080fd5b5035610425565b6040805173ffffffffffffffffffffffffffffffffffffffff9092168252519081900360200190f35b34801561018857600080fd5b506101156004803603602081101561019f57600080fd5b503561044d565b60008054604080517f0feb4b0b000000000000000000000000000000000000000000000000000000008152336004820152905173ffffffffffffffffffffffffffffffffffffffff90921691630feb4b0b91602480820192602092909190829003018186803b15801561021857600080fd5b505afa15801561022c573d6000803e3d6000fd5b505050506040513d602081101561024257600080fd5b5051151561024f57600080fd5b60008381526001602052604090205474010000000000000000000000000000000000000000900460ff16156102e557604080517f08c379a000000000000000000000000000000000000000000000000000000000815260206004820152600d60248201527f6578697374734368616e6e656c00000000000000000000000000000000000000604482015290519081900360640190fd5b6102ed61047a565b33815260016020808301828152600087815292825260408084208551815493511515740100000000000000000000000000000000000000000274ff00000000000000000000000000000000000000001973ffffffffffffffffffffffffffffffffffffffff9290921673ffffffffffffffffffffffffffffffffffffffff19909516949094171692909217909155805187815280830182815287519282019290925286517f6877533e9827b60b83b49d61d0b0a49444c6822b3dc63136b24ed8c6d56c44e19489948994926060850192918601918190849084905b838110156103e05781810151838201526020016103c8565b50505050905090810190601f16801561040d5780820380516001836020036101000a031916815260200191505b50935050505060405180910390a15060019392505050565b60009081526001602052604090205473ffffffffffffffffffffffffffffffffffffffff1690565b60009081526001602052604090205474010000000000000000000000000000000000000000900460ff1690565b60408051808201909152600080825260208201529056fea165627a7a723058202fc352d56fc322e5b48c6e19c87a4ae2f82f047e305c49819cadde3c7dacef1d0029",
  "source": "pragma solidity >=0.4.22 <0.6.0;\n\ncontract AccountContract {\n    function existsAccount(address _owner) public view returns (bool);\n}\n\ncontract Channel {\n    AccountContract accountContract;\n\n    constructor (address _accountContractAddress) public {\n        accountContract = AccountContract(_accountContractAddress);\n    }\n\n    struct channelStruct {\n        address owner;\n        bool exists;\n    }\n\n    mapping(bytes32 => channelStruct) channel;\n\n\n    event newChannelEvent (\n        bytes32 channelId,\n        string ciphertext\n    );\n\n    function createChannel(bytes32 _channelId, string memory _ciphertext) public returns (bool) {\n        require(accountContract.existsAccount(msg.sender));\n        require(!channel[_channelId].exists, \"existsChannel\");\n\n        channelStruct memory newChannel;\n        newChannel.owner = msg.sender;\n        newChannel.exists = true;\n        channel[_channelId] = newChannel;\n\n        emit newChannelEvent(\n            _channelId,\n            _ciphertext\n        );\n\n        return true;\n    }\n\n    function existsChannel(bytes32 _channelId) public view returns (bool) {\n        return channel[_channelId].exists;\n    }\n\n    function getChannelOwner(bytes32 _channelId) public view returns (address) {\n        return channel[_channelId].owner;\n    }\n}\n\n",
  "sourcePath": "/home/jochen/WebstormProjects/sesamed/eth/contracts/sesamed/Channel.sol",
  "compiler": {
    "name": "solc",
    "version": "0.5.0+commit.1d4f565a.Emscripten.clang"
  },
  "schemaVersion": "3.0.2",
  "updatedAt": "2019-02-21T11:35:24.972Z",
  "devdoc": {
    "methods": {}
  },
  "userdoc": {
    "methods": {}
  }
}