{
  "contractName": "Channel",
  "abi": [
    {
      "inputs": [
        {
          "name": "_accountContractAddress",
          "type": "address"
        }
      ],
      "payable": false,
      "stateMutability": "nonpayable",
      "type": "constructor"
    },
    {
      "anonymous": false,
      "inputs": [
        {
          "indexed": true,
          "name": "channelId",
          "type": "bytes32"
        },
        {
          "indexed": false,
          "name": "ciphertext",
          "type": "string"
        },
        {
          "indexed": false,
          "name": "name",
          "type": "string"
        }
      ],
      "name": "newChannelEvent",
      "type": "event"
    },
    {
      "constant": false,
      "inputs": [
        {
          "name": "_channelId",
          "type": "bytes32"
        },
        {
          "name": "_ciphertext",
          "type": "string"
        },
        {
          "name": "_name",
          "type": "string"
        }
      ],
      "name": "register",
      "outputs": [
        {
          "name": "",
          "type": "bool"
        }
      ],
      "payable": false,
      "stateMutability": "nonpayable",
      "type": "function"
    },
    {
      "constant": true,
      "inputs": [
        {
          "name": "_channelId",
          "type": "bytes32"
        }
      ],
      "name": "existsChannel",
      "outputs": [
        {
          "name": "",
          "type": "bool"
        }
      ],
      "payable": false,
      "stateMutability": "view",
      "type": "function"
    },
    {
      "constant": true,
      "inputs": [
        {
          "name": "_channelId",
          "type": "bytes32"
        }
      ],
      "name": "getChannelOwner",
      "outputs": [
        {
          "name": "",
          "type": "address"
        }
      ],
      "payable": false,
      "stateMutability": "view",
      "type": "function"
    }
  ],
  "bytecode": "0x608060405234801561001057600080fd5b5060405160208061061d8339810180604052602081101561003057600080fd5b505160008054600160a060020a03909216600160a060020a03199092169190911790556105bb806100626000396000f3fe6080604052600436106100565763ffffffff7c010000000000000000000000000000000000000000000000000000000060003504166358fd6aec811461005b578063aba60a70146101b0578063da314caf14610203575b600080fd5b34801561006757600080fd5b5061019c6004803603606081101561007e57600080fd5b813591908101906040810160208201356401000000008111156100a057600080fd5b8201836020820111156100b257600080fd5b803590602001918460018302840111640100000000831117156100d457600080fd5b91908080601f016020809104026020016040519081016040528093929190818152602001838380828437600092019190915250929594936020810193503591505064010000000081111561012757600080fd5b82018360208201111561013957600080fd5b8035906020019184600183028401116401000000008311171561015b57600080fd5b91908080601f01602080910402602001604051908101604052809392919081815260200183838082843760009201919091525092955061022d945050505050565b604080519115158252519081900360200190f35b3480156101bc57600080fd5b506101da600480360360208110156101d357600080fd5b5035610523565b6040805173ffffffffffffffffffffffffffffffffffffffff9092168252519081900360200190f35b34801561020f57600080fd5b5061019c6004803603602081101561022657600080fd5b503561054b565b805160208083019190912060008054604080517fcb8b03b6000000000000000000000000000000000000000000000000000000008152336004820152602481018590529051929473ffffffffffffffffffffffffffffffffffffffff9092169263cb8b03b692604480840193919291829003018186803b1580156102b057600080fd5b505afa1580156102c4573d6000803e3d6000fd5b505050506040513d60208110156102da57600080fd5b505115156102e757600080fd5b60008581526001602052604090205474010000000000000000000000000000000000000000900460ff161561037d57604080517f08c379a000000000000000000000000000000000000000000000000000000000815260206004820152600d60248201527f6578697374734368616e6e656c00000000000000000000000000000000000000604482015290519081900360640190fd5b610385610578565b33815260016020808301828152600089815292825260408084208551815493511515740100000000000000000000000000000000000000000274ff00000000000000000000000000000000000000001973ffffffffffffffffffffffffffffffffffffffff9290921673ffffffffffffffffffffffffffffffffffffffff199095169490941716929092179091558051818152885191810191909152875189937f7d51c592593a981cd9422c3cf1109c8df22d33c2b5ce0c931646130739cbb031938a938a9390928392838101926060850192918801918190849084905b8381101561047b578181015183820152602001610463565b50505050905090810190601f1680156104a85780820380516001836020036101000a031916815260200191505b50838103825284518152845160209182019186019080838360005b838110156104db5781810151838201526020016104c3565b50505050905090810190601f1680156105085780820380516001836020036101000a031916815260200191505b5094505050505060405180910390a250600195945050505050565b60009081526001602052604090205473ffffffffffffffffffffffffffffffffffffffff1690565b60009081526001602052604090205474010000000000000000000000000000000000000000900460ff1690565b60408051808201909152600080825260208201529056fea165627a7a723058203bb11bbea7f943a2534be7b1f33f764efe39b91cf898f50118ecf232bd903ef90029",
  "source": "pragma solidity >=0.4.22 <0.6.0;\n\ncontract AccountContract {\n    function existsAccount(address _owner, bytes32 _nameHash) public view returns (bool);\n}\n\ncontract Channel {\n    AccountContract accountContract;\n\n    constructor (address _accountContractAddress) public {\n        accountContract = AccountContract(_accountContractAddress);\n    }\n\n    struct channelStruct {\n        address owner;\n        bool exists;\n    }\n\n    mapping(bytes32 => channelStruct) channel;\n\n\n    event newChannelEvent (\n        bytes32 indexed channelId,\n        string ciphertext,\n        string name\n    );\n\n    function register(bytes32 _channelId, string memory _ciphertext, string memory _name) public returns (bool) {\n        bytes32 nameHash = keccak256(bytes(_name));\n\n        require(accountContract.existsAccount(msg.sender, nameHash));\n        require(!channel[_channelId].exists, \"existsChannel\");\n\n        channelStruct memory newChannel;\n        newChannel.owner = msg.sender;\n        newChannel.exists = true;\n        channel[_channelId] = newChannel;\n\n        emit newChannelEvent(\n            _channelId,\n            _ciphertext,\n            _name\n        );\n\n        return true;\n    }\n\n    function existsChannel(bytes32 _channelId) public view returns (bool) {\n        return channel[_channelId].exists;\n    }\n\n    function getChannelOwner(bytes32 _channelId) public view returns (address) {\n        return channel[_channelId].owner;\n    }\n}\n\n",
  "sourcePath": "/home/jochen/WebstormProjects/sesamed/eth/contracts/sesamed/Channel.sol",
  "compiler": {
    "name": "solc",
    "version": "0.5.0+commit.1d4f565a.Emscripten.clang"
  },
  "schemaVersion": "3.0.2",
  "updatedAt": "2019-02-24T12:58:22.947Z",
  "devdoc": {
    "methods": {}
  },
  "userdoc": {
    "methods": {}
  }
}