{
  "contractName": "Channel",
  "abi": [
    {
      "inputs": [
        {
          "name": "_accountContractAddress",
          "type": "address"
        }
      ],
      "payable": false,
      "stateMutability": "nonpayable",
      "type": "constructor"
    },
    {
      "anonymous": false,
      "inputs": [
        {
          "indexed": true,
          "name": "channelId",
          "type": "bytes32"
        },
        {
          "indexed": false,
          "name": "nameHash",
          "type": "bytes32"
        },
        {
          "indexed": false,
          "name": "ciphertext",
          "type": "string"
        }
      ],
      "name": "newChannelEvent",
      "type": "event"
    },
    {
      "constant": false,
      "inputs": [
        {
          "name": "_channelId",
          "type": "bytes32"
        },
        {
          "name": "_nameHash",
          "type": "bytes32"
        },
        {
          "name": "_ciphertext",
          "type": "string"
        }
      ],
      "name": "register",
      "outputs": [
        {
          "name": "",
          "type": "bool"
        }
      ],
      "payable": false,
      "stateMutability": "nonpayable",
      "type": "function"
    },
    {
      "constant": true,
      "inputs": [
        {
          "name": "_channelId",
          "type": "bytes32"
        }
      ],
      "name": "existsChannel",
      "outputs": [
        {
          "name": "",
          "type": "bool"
        }
      ],
      "payable": false,
      "stateMutability": "view",
      "type": "function"
    },
    {
      "constant": true,
      "inputs": [
        {
          "name": "_channelId",
          "type": "bytes32"
        }
      ],
      "name": "getChannelOwner",
      "outputs": [
        {
          "name": "",
          "type": "address"
        }
      ],
      "payable": false,
      "stateMutability": "view",
      "type": "function"
    }
  ],
  "bytecode": "0x608060405234801561001057600080fd5b5060405160208061052f8339810180604052602081101561003057600080fd5b505160008054600160a060020a03909216600160a060020a03199092169190911790556104cd806100626000396000f3fe6080604052600436106100565763ffffffff7c01000000000000000000000000000000000000000000000000000000006000350416630e5ceb47811461005b578063aba60a701461012e578063da314caf14610181575b600080fd5b34801561006757600080fd5b5061011a6004803603606081101561007e57600080fd5b8135916020810135918101906060810160408201356401000000008111156100a557600080fd5b8201836020820111156100b757600080fd5b803590602001918460018302840111640100000000831117156100d957600080fd5b91908080601f0160208091040260200160405190810160405280939291908181526020018383808284376000920191909152509295506101ab945050505050565b604080519115158252519081900360200190f35b34801561013a57600080fd5b506101586004803603602081101561015157600080fd5b5035610435565b6040805173ffffffffffffffffffffffffffffffffffffffff9092168252519081900360200190f35b34801561018d57600080fd5b5061011a600480360360208110156101a457600080fd5b503561045d565b60008381526001602052604081205474010000000000000000000000000000000000000000900460ff161561024157604080517f08c379a000000000000000000000000000000000000000000000000000000000815260206004820152600d60248201527f6578697374734368616e6e656c00000000000000000000000000000000000000604482015290519081900360640190fd5b600054604080517fcb8b03b600000000000000000000000000000000000000000000000000000000815233600482015260248101869052905173ffffffffffffffffffffffffffffffffffffffff9092169163cb8b03b691604480820192602092909190829003018186803b1580156102b957600080fd5b505afa1580156102cd573d6000803e3d6000fd5b505050506040513d60208110156102e357600080fd5b505115156102f057600080fd5b6102f861048a565b33815260016020808301828152600088815292825260408084208551815493511515740100000000000000000000000000000000000000000274ff00000000000000000000000000000000000000001973ffffffffffffffffffffffffffffffffffffffff9290921673ffffffffffffffffffffffffffffffffffffffff199095169490941716929092179091558051878152808301828152875192820192909252865189947fed50516d00d5e38fb1220e6a1d731f98338a324960547c3151398c74dc89665d948a948a949390926060850192860191908190849084905b838110156103ef5781810151838201526020016103d7565b50505050905090810190601f16801561041c5780820380516001836020036101000a031916815260200191505b50935050505060405180910390a2506001949350505050565b60009081526001602052604090205473ffffffffffffffffffffffffffffffffffffffff1690565b60009081526001602052604090205474010000000000000000000000000000000000000000900460ff1690565b60408051808201909152600080825260208201529056fea165627a7a72305820a13cde977b82161a4b0f3755ca88ab8009790b945f526e98a98b1ce80d683f580029",
  "source": "pragma solidity 0.5.0;\n\ncontract AccountContract {\n    function existsAccount(address _owner, bytes32 _nameHash) public view returns (bool);\n}\n\ncontract Channel {\n    AccountContract accountContract;\n\n    constructor (address _accountContractAddress) public {\n        accountContract = AccountContract(_accountContractAddress);\n    }\n\n    struct channelStruct {\n        address owner;\n        bool exists;\n    }\n\n    mapping(bytes32 => channelStruct) channel;\n\n\n    event newChannelEvent (\n        bytes32 indexed channelId,\n        bytes32 nameHash,\n        string ciphertext\n    );\n\n    function register(bytes32 _channelId, bytes32 _nameHash, string memory _ciphertext) public returns (bool) {\n        require(!channel[_channelId].exists, \"existsChannel\");\n        require(accountContract.existsAccount(msg.sender, _nameHash));\n\n        channelStruct memory newChannel;\n        newChannel.owner = msg.sender;\n        newChannel.exists = true;\n        channel[_channelId] = newChannel;\n\n        emit newChannelEvent(\n            _channelId,\n            _nameHash,\n            _ciphertext\n        );\n\n        return true;\n    }\n\n    function existsChannel(bytes32 _channelId) public view returns (bool) {\n        return channel[_channelId].exists;\n    }\n\n    function getChannelOwner(bytes32 _channelId) public view returns (address) {\n        return channel[_channelId].owner;\n    }\n}\n\n",
  "sourcePath": "/home/jochen/WebstormProjects/sesamed/eth/contracts/sesamed/Channel.sol",
  "compiler": {
    "name": "solc",
    "version": "0.5.0+commit.1d4f565a.Emscripten.clang"
  },
  "schemaVersion": "3.0.2",
  "updatedAt": "2019-03-03T14:26:31.200Z",
  "devdoc": {
    "methods": {}
  },
  "userdoc": {
    "methods": {}
  }
}