{
  "contractName": "Document",
  "abi": [
    {
      "inputs": [
        {
          "name": "_channelContractAddress",
          "type": "address"
        }
      ],
      "payable": false,
      "stateMutability": "nonpayable",
      "type": "constructor"
    },
    {
      "anonymous": false,
      "inputs": [
        {
          "indexed": true,
          "name": "channelId",
          "type": "bytes32"
        },
        {
          "indexed": false,
          "name": "fileHash",
          "type": "string"
        },
        {
          "indexed": false,
          "name": "repo",
          "type": "uint8"
        }
      ],
      "name": "newDocumentEvent",
      "type": "event"
    },
    {
      "constant": false,
      "inputs": [
        {
          "name": "_channelId",
          "type": "bytes32"
        },
        {
          "name": "_fileHash",
          "type": "string"
        },
        {
          "name": "_repo",
          "type": "uint8"
        }
      ],
      "name": "send",
      "outputs": [
        {
          "name": "sucess",
          "type": "bool"
        }
      ],
      "payable": false,
      "stateMutability": "nonpayable",
      "type": "function"
    }
  ],
  "bytecode": "0x608060405234801561001057600080fd5b506040516020806103788339810180604052602081101561003057600080fd5b505160008054600160a060020a03909216600160a060020a0319909216919091179055610316806100626000396000f3fe6080604052600436106100405763ffffffff7c010000000000000000000000000000000000000000000000000000000060003504166382e542c38114610045575b600080fd5b34801561005157600080fd5b506101046004803603606081101561006857600080fd5b8135919081019060408101602082013564010000000081111561008a57600080fd5b82018360208201111561009c57600080fd5b803590602001918460018302840111640100000000831117156100be57600080fd5b91908080601f0160208091040260200160405190810160405280939291908181526020018383808284376000920191909152509295505050903560ff1691506101189050565b604080519115158252519081900360200190f35b60008054604080517faba60a70000000000000000000000000000000000000000000000000000000008152600481018790529051339273ffffffffffffffffffffffffffffffffffffffff169163aba60a70916024808301926020929190829003018186803b15801561018a57600080fd5b505afa15801561019e573d6000803e3d6000fd5b505050506040513d60208110156101b457600080fd5b505173ffffffffffffffffffffffffffffffffffffffff161461023857604080517f08c379a000000000000000000000000000000000000000000000000000000000815260206004820152600f60248201527f6e6f744368616e6e656c4f776e65720000000000000000000000000000000000604482015290519081900360640190fd5b837fd6956f8ebcc3ee44889f596605edb2b3593184cfdb0bb55954730c07efb34dcf848460405180806020018360ff1660ff168152602001828103825284818151815260200191508051906020019080838360005b838110156102a557818101518382015260200161028d565b50505050905090810190601f1680156102d25780820380516001836020036101000a031916815260200191505b50935050505060405180910390a2506001939250505056fea165627a7a72305820ed8655d6d61be28c50a8550baf329991b224a5dc93e9c97b889fb2b03ef8f3820029",
  "source": "pragma solidity >=0.4.22 <0.6.0;\n\ncontract ChannelContract {\n    function existsChannel(bytes32 _channelId) public view returns (bool);\n    function getChannelOwner(bytes32 _channelId) public view returns (address);\n}\n\ncontract Document {\n    ChannelContract channelContract;\n\n    constructor (address _channelContractAddress) public {\n        channelContract = ChannelContract(_channelContractAddress);\n    }\n\n    event newDocumentEvent (\n        bytes32 indexed channelId,\n        string fileHash,\n        uint8 repo\n    );\n\n    function send(bytes32 _channelId, string memory _fileHash, uint8 _repo) public returns (bool sucess) {\n        require(channelContract.getChannelOwner(_channelId) == msg.sender, \"notChannelOwner\");\n\n        emit newDocumentEvent (\n            _channelId,\n            _fileHash,\n            _repo\n        );\n\n        return true;\n    }\n}\n\n",
  "sourcePath": "/home/jochen/WebstormProjects/sesamed/eth/contracts/sesamed/Document.sol",
  "compiler": {
    "name": "solc",
    "version": "0.5.0+commit.1d4f565a.Emscripten.clang"
  },
  "schemaVersion": "3.0.2",
  "updatedAt": "2019-02-24T09:42:49.154Z",
  "devdoc": {
    "methods": {}
  },
  "userdoc": {
    "methods": {}
  }
}