{
  "contractName": "Document",
  "abi": [
    {
      "inputs": [
        {
          "name": "_channelContractAddress",
          "type": "address"
        }
      ],
      "payable": false,
      "stateMutability": "nonpayable",
      "type": "constructor"
    },
    {
      "anonymous": false,
      "inputs": [
        {
          "indexed": true,
          "name": "channelId",
          "type": "bytes32"
        },
        {
          "indexed": false,
          "name": "fileHash",
          "type": "bytes32"
        }
      ],
      "name": "newDocumentEvent",
      "type": "event"
    },
    {
      "constant": false,
      "inputs": [
        {
          "name": "_channelId",
          "type": "bytes32"
        },
        {
          "name": "_fileHash",
          "type": "bytes32"
        }
      ],
      "name": "send",
      "outputs": [
        {
          "name": "success",
          "type": "bool"
        }
      ],
      "payable": false,
      "stateMutability": "nonpayable",
      "type": "function"
    }
  ],
  "bytecode": "0x608060405234801561001057600080fd5b506040516020806102768339810180604052602081101561003057600080fd5b505160008054600160a060020a03909216600160a060020a0319909216919091179055610214806100626000396000f3fe6080604052600436106100405763ffffffff7c010000000000000000000000000000000000000000000000000000000060003504166316fc35d98114610045575b600080fd5b34801561005157600080fd5b506100756004803603604081101561006857600080fd5b5080359060200135610089565b604080519115158252519081900360200190f35b60008054604080517faba60a70000000000000000000000000000000000000000000000000000000008152600481018690529051339273ffffffffffffffffffffffffffffffffffffffff169163aba60a70916024808301926020929190829003018186803b1580156100fb57600080fd5b505afa15801561010f573d6000803e3d6000fd5b505050506040513d602081101561012557600080fd5b505173ffffffffffffffffffffffffffffffffffffffff16146101a957604080517f08c379a000000000000000000000000000000000000000000000000000000000815260206004820152600f60248201527f6e6f744368616e6e656c4f776e65720000000000000000000000000000000000604482015290519081900360640190fd5b60408051838152905184917fa37fc3eac43c18e72a299d2340d74d2ca033f206f27fd00fcd051e56f7a839f7919081900360200190a25060019291505056fea165627a7a72305820f0dae5df63ae5502417602b7b5115f0618a8fd79e73f5bd5e40c5b9418fbfdbe0029",
  "source": "pragma solidity 0.5.0;\n\ncontract ChannelContract {\n    function existsChannel(bytes32 _channelId) public view returns (bool);\n    function getChannelOwner(bytes32 _channelId) public view returns (address);\n}\n\ncontract Document {\n    ChannelContract channelContract;\n\n    constructor (address _channelContractAddress) public {\n        channelContract = ChannelContract(_channelContractAddress);\n    }\n\n    event newDocumentEvent (\n        bytes32 indexed channelId,\n        bytes32 fileHash\n    );\n\n    function send(bytes32 _channelId, bytes32 _fileHash) public returns (bool success) {\n        require(channelContract.getChannelOwner(_channelId) == msg.sender, \"notChannelOwner\");\n\n        emit newDocumentEvent (\n            _channelId,\n            _fileHash\n        );\n\n        return true;\n    }\n}\n\n",
  "sourcePath": "/home/jochen/WebstormProjects/sesamed/eth/contracts/sesamed/Document.sol",
  "compiler": {
    "name": "solc",
    "version": "0.5.0+commit.1d4f565a.Emscripten.clang"
  },
  "schemaVersion": "3.0.2",
  "updatedAt": "2019-03-03T14:26:31.197Z",
  "devdoc": {
    "methods": {}
  },
  "userdoc": {
    "methods": {}
  }
}